{
  "_format": "hh-sol-artifact-1",
  "contractName": "MinimalForwarder",
  "sourceName": "contracts/MinimalForwarder.sol",
  "abi": [
    {
      "inputs": [],
      "stateMutability": "nonpayable",
      "type": "constructor"
    },
    {
      "anonymous": false,
      "inputs": [
        {
          "indexed": true,
          "internalType": "address",
          "name": "previousOwner",
          "type": "address"
        },
        {
          "indexed": true,
          "internalType": "address",
          "name": "newOwner",
          "type": "address"
        }
      ],
      "name": "OwnershipTransferred",
      "type": "event"
    },
    {
      "inputs": [],
      "name": "_TYPEHASH",
      "outputs": [
        {
          "internalType": "bytes32",
          "name": "",
          "type": "bytes32"
        }
      ],
      "stateMutability": "view",
      "type": "function"
    },
    {
      "inputs": [
        {
          "components": [
            {
              "internalType": "address",
              "name": "from",
              "type": "address"
            },
            {
              "internalType": "address",
              "name": "to",
              "type": "address"
            },
            {
              "internalType": "uint256",
              "name": "value",
              "type": "uint256"
            },
            {
              "internalType": "uint256",
              "name": "gas",
              "type": "uint256"
            },
            {
              "internalType": "uint256",
              "name": "nonce",
              "type": "uint256"
            },
            {
              "internalType": "bytes",
              "name": "data",
              "type": "bytes"
            }
          ],
          "internalType": "struct MinimalForwarder.ForwardRequest",
          "name": "req",
          "type": "tuple"
        },
        {
          "internalType": "bytes",
          "name": "signature",
          "type": "bytes"
        }
      ],
      "name": "execute",
      "outputs": [
        {
          "internalType": "bool",
          "name": "",
          "type": "bool"
        },
        {
          "internalType": "bytes",
          "name": "",
          "type": "bytes"
        }
      ],
      "stateMutability": "payable",
      "type": "function"
    },
    {
      "inputs": [
        {
          "internalType": "address",
          "name": "from",
          "type": "address"
        }
      ],
      "name": "getNonce",
      "outputs": [
        {
          "internalType": "uint256",
          "name": "",
          "type": "uint256"
        }
      ],
      "stateMutability": "view",
      "type": "function"
    },
    {
      "inputs": [],
      "name": "owner",
      "outputs": [
        {
          "internalType": "address",
          "name": "",
          "type": "address"
        }
      ],
      "stateMutability": "view",
      "type": "function"
    },
    {
      "inputs": [],
      "name": "renounceOwnership",
      "outputs": [],
      "stateMutability": "nonpayable",
      "type": "function"
    },
    {
      "inputs": [
        {
          "internalType": "address",
          "name": "newOwner",
          "type": "address"
        }
      ],
      "name": "transferOwnership",
      "outputs": [],
      "stateMutability": "nonpayable",
      "type": "function"
    },
    {
      "inputs": [
        {
          "components": [
            {
              "internalType": "address",
              "name": "from",
              "type": "address"
            },
            {
              "internalType": "address",
              "name": "to",
              "type": "address"
            },
            {
              "internalType": "uint256",
              "name": "value",
              "type": "uint256"
            },
            {
              "internalType": "uint256",
              "name": "gas",
              "type": "uint256"
            },
            {
              "internalType": "uint256",
              "name": "nonce",
              "type": "uint256"
            },
            {
              "internalType": "bytes",
              "name": "data",
              "type": "bytes"
            }
          ],
          "internalType": "struct MinimalForwarder.ForwardRequest",
          "name": "req",
          "type": "tuple"
        },
        {
          "internalType": "bytes",
          "name": "signature",
          "type": "bytes"
        }
      ],
      "name": "verify",
      "outputs": [
        {
          "internalType": "bool",
          "name": "",
          "type": "bool"
        }
      ],
      "stateMutability": "view",
      "type": "function"
    },
    {
      "stateMutability": "payable",
      "type": "receive"
    }
  ],
  "bytecode": "0x61014060405234801561001157600080fd5b50604080518082018252601081526f26b4b734b6b0b62337b93bb0b93232b960811b602080830191825283518085019094526005845264302e302e3160d81b908401528151902060e08190527fae209a0b48f21c054280f2455d32cf309387644879d9acbd8ffc1991638118856101008190524660a0529192917f8b73c3c69bb8fe3d512ecc4cf759cc79239f7b179b0ffacaa9a75d522b39400f6100fb8184846040805160208101859052908101839052606081018290524660808201523060a082015260009060c0016040516020818303038152906040528051906020012090509392505050565b6080523060c052610120525061011b92506101169150503390565b610120565b610170565b600080546001600160a01b038381166001600160a01b0319831681178455604051919092169283917f8be0079c531659141344cd1fd0a4f28419497f9722a3daafe3b4186f6b6457e09190a35050565b60805160a05160c05160e0516101005161012051610b0f6101ad600039600050506000505060005050600050506000505060005050610b0f6000f3fe6080604052600436106100745760003560e01c8063715018a61161004e578063715018a61461011e5780638da5cb5b14610135578063bf5d3bdb1461015d578063f2fde38b1461018d57600080fd5b8063175c25a5146100805780632d0335ab146100c757806347153f82146100fd57600080fd5b3661007b57005b600080fd5b34801561008c57600080fd5b506100b47fdd8f4b70b0f4393e889bd39128a30628a78b61816a9eb8199759e7a349657e4881565b6040519081526020015b60405180910390f35b3480156100d357600080fd5b506100b46100e2366004610876565b6001600160a01b031660009081526001602052604090205490565b61011061010b3660046108a6565b6101ad565b6040516100be929190610969565b34801561012a57600080fd5b5061013361034f565b005b34801561014157600080fd5b506000546040516001600160a01b0390911681526020016100be565b34801561016957600080fd5b5061017d6101783660046108a6565b610363565b60405190151581526020016100be565b34801561019957600080fd5b506101336101a8366004610876565b610487565b600060606101b9610500565b6101c4858585610363565b6102305760405162461bcd60e51b815260206004820152603260248201527f4d696e696d616c466f727761726465723a207369676e617475726520646f6573604482015271081b9bdd081b585d18da081c995c5d595cdd60721b60648201526084015b60405180910390fd5b61023f608086013560016109a5565b600160006102506020890189610876565b6001600160a01b03166001600160a01b031681526020019081526020016000208190555060008086602001602081019061028a9190610876565b6001600160a01b0316606088013560408901356102aa60a08b018b6109c6565b6102b760208d018d610876565b6040516020016102c993929190610a0d565b60408051601f19818403018152908290526102e391610a33565b600060405180830381858888f193505050503d8060008114610321576040519150601f19603f3d011682016040523d82523d6000602084013e610326565b606091505b50909250905061033b603f6060890135610a4f565b5a1161034357fe5b90969095509350505050565b610357610500565b610361600061055a565b565b6000806103736020860186610876565b6103836040870160208801610876565b60408701356060880135608089013561039f60a08b018b6109c6565b6040516020016103b59796959493929190610a71565b604051602081830303815290604052805190602001209050600061041a85858080601f01602080910402602001604051908101604052809392919081815260200183838082843760009201919091525061041492508691506105aa9050565b906105fd565b905060808601356001600061043260208a018a610876565b6001600160a01b03166001600160a01b031681526020019081526020016000205414801561047d57506104686020870187610876565b6001600160a01b0316816001600160a01b0316145b9695505050505050565b61048f610500565b6001600160a01b0381166104f45760405162461bcd60e51b815260206004820152602660248201527f4f776e61626c653a206e6577206f776e657220697320746865207a65726f206160448201526564647265737360d01b6064820152608401610227565b6104fd8161055a565b50565b6000546001600160a01b031633146103615760405162461bcd60e51b815260206004820181905260248201527f4f776e61626c653a2063616c6c6572206973206e6f7420746865206f776e65726044820152606401610227565b600080546001600160a01b038381166001600160a01b0319831681178455604051919092169283917f8be0079c531659141344cd1fd0a4f28419497f9722a3daafe3b4186f6b6457e09190a35050565b6040517f19457468657265756d205369676e6564204d6573736167653a0a3332000000006020820152603c8101829052600090605c01604051602081830303815290604052805190602001209050919050565b600080600061060c8585610623565b9150915061061981610668565b5090505b92915050565b60008082516041036106595760208301516040840151606085015160001a61064d878285856107b2565b94509450505050610661565b506000905060025b9250929050565b600081600481111561067c5761067c610ac3565b036106845750565b600181600481111561069857610698610ac3565b036106e55760405162461bcd60e51b815260206004820152601860248201527f45434453413a20696e76616c6964207369676e617475726500000000000000006044820152606401610227565b60028160048111156106f9576106f9610ac3565b036107465760405162461bcd60e51b815260206004820152601f60248201527f45434453413a20696e76616c6964207369676e6174757265206c656e677468006044820152606401610227565b600381600481111561075a5761075a610ac3565b036104fd5760405162461bcd60e51b815260206004820152602260248201527f45434453413a20696e76616c6964207369676e6174757265202773272076616c604482015261756560f01b6064820152608401610227565b6000807f7fffffffffffffffffffffffffffffff5d576e7357a4501ddfe92f46681b20a08311156107e9575060009050600361086d565b6040805160008082526020820180845289905260ff881692820192909252606081018690526080810185905260019060a0016020604051602081039080840390855afa15801561083d573d6000803e3d6000fd5b5050604051601f1901519150506001600160a01b0381166108665760006001925092505061086d565b9150600090505b94509492505050565b60006020828403121561088857600080fd5b81356001600160a01b038116811461089f57600080fd5b9392505050565b6000806000604084860312156108bb57600080fd5b833567ffffffffffffffff808211156108d357600080fd5b9085019060c082880312156108e757600080fd5b909350602085013590808211156108fd57600080fd5b818601915086601f83011261091157600080fd5b81358181111561092057600080fd5b87602082850101111561093257600080fd5b6020830194508093505050509250925092565b60005b83811015610960578181015183820152602001610948565b50506000910152565b82151581526040602082015260008251806040840152610990816060850160208701610945565b601f01601f1916919091016060019392505050565b8082018082111561061d57634e487b7160e01b600052601160045260246000fd5b6000808335601e198436030181126109dd57600080fd5b83018035915067ffffffffffffffff8211156109f857600080fd5b60200191503681900382131561066157600080fd5b8284823760609190911b6bffffffffffffffffffffffff19169101908152601401919050565b60008251610a45818460208701610945565b9190910192915050565b600082610a6c57634e487b7160e01b600052601260045260246000fd5b500490565b60006bffffffffffffffffffffffff19808a60601b168352808960601b166014840152508660288301528560488301528460688301528284608884013750600091016088019081529695505050505050565b634e487b7160e01b600052602160045260246000fdfea26469706673582212208165e2a6564d0264270f47737a629b227fb4fd52ccc48772da7bec290145e65b64736f6c63430008140033",
  "linkReferences": {},
  "deployedLinkReferences": {}
}